:020000040800F2
:10000000B88F00209D010008730F0008450B000801
:100010006F0F000811020008252D000800000000E5
:10002000000000000000000000000000AF01000818
:10003000CD02000800000000B301000825240008DC
:10004000B7010008B7010008B7010008B7010008B0
:10005000B7010008B7010008B7010008B7010008A0
:10006000B7010008B7010008B7010008B701000890
:10007000B7010008B7010008B7010008B701000880
:10008000B7010008B7010008B7010008B701000870
:10009000B7010008B7010008B7010008A90300086C
:1000A000B7010008B7010008B7010008B701000850
:1000B000B7010008B7010008B7010008B701000840
:1000C000B7010008B7010008B7010008B701000830
:1000D000B7010008392900084929000859290008F2
:1000E000B7010008B7010008B7010008B701000810
:1000F000B7010008B7010008B7010008B701000800
:10010000B7010008B701000885260008B7010008FC
:10011000B7010008B7010008B7010008B7010008DF
:10012000B7010008B7010008B7010008B7010008CF
:10013000B7010008D1020008B7010008B7010008A4
:10014000B7010008B7010008B7010008B7010008AF
:10015000B7010008B7010008B701000869290008C5
:10016000B7010008B7010008B7010008B70100088F
:10017000B7010008B7010008B7010008B70100087F
:10018000B7010008B7010008DFF80CD000F02EF826
:1001900000480047F15C0008B88F002006488047FF
:1001A00006480047FEE7FEE7FEE7FEE7FEE7FEE75C
:1001B000FEE7FEE7FEE7FEE7B1240008890100083C
:1001C00030B50B46014600202022012409E021FA27
:1001D00002F59D4205D303FA02F5491B04FA02F524
:1001E0002844151EA2F10102F1DC30BD064C074D7A
:1001F00006E0E06840F0010394E8070098471034F7
:10020000AC42F6D3FFF7C4FFE88D0008088E000863
:1002100000BFFEE7F0B502460B46FF24FF25002095
:1002200009E012F8016B86EA0501074E765C86EA62
:100230000405064E745C1E1EA3F10107BBB2F0D18B
:1002400045EA0420F0BD0000848A0008848B000881
:1002500008B525208DF800000D208DF80100002044
:100260008DF8020001208DF80300684600F082FE40
:1002700026208DF800000D208DF8010000208DF85B
:10028000020001208DF80300684600F073FE27206D
:100290008DF800000D208DF8010000208DF802007F
:1002A00001208DF80300684600F064FE47208DF8B9
:1002B00000000D208DF8010000208DF802000120C3
:1002C0008DF80300684600F055FE08BD7047000039
:1002D0002DE9F0413048047800BF304800EB0410AD
:1002E000006849F21A01084000B130E02B4800EBE9
:1002F0000410006800F44070B0F5407F00D026E0A4
:10030000264800EB04100068C0F30D40051F40F2C2
:10031000EA50854200D91AE045F0004002F0E2FEC2
:1003200006469EB11D4800EB0410806820F00307CC
:1003300006F10408E81C850803E001CF48F8040B27
:100340006D1E002DF9D1304605F0F0FE00BF4FF0D4
:100350000040124901EB04110860601C04460428A7
:1003600000D100240D4800EB0410006800F00040AC
:100370000028B2D008490C700948406900F080009C
:1003800020B1802006494861002088600548044962
:100390004861BDE8F081000072000020585A00203A
:1003A000009002404080010070B5402000F06AF8E3
:1003B000002845D0152005F0CDFE044604F00400C9
:1003C00000283AD0002508E0012005F0C3FE0446CD
:1003D00004F0040000B102E06D1C0A2DF4D300BF4C
:1003E00004F00400A0B117A101221B4B1A700020D9
:1003F0000BE00A5C194B9A8000BF184A128802F081
:100400004002002AF9D0421CD0B21328F1D314E0E4
:1004100013A10022104B1A7000200BE00A5C0F4B56
:100420009A8000BF0D4A128802F04002002AF9D0DB
:10043000421CD0B21628F1D300BF402000F01CF8B7
:1004400070BD00004554485F4C494E4B20436F6ED1
:100450006E6563740D0A00007000002000100140FA
:100460004554485F4C494E4B20446973636F6E6E30
:100470006563740D0A0000000149086070470000C0
:10048000143C014001460020034A12680A400AB1A8
:10049000012000E000207047143C01400021234966
:1004A0008279002A3AD00A46126803689A430B46BA
:1004B0001A600A1D126803689A430B1D1A600279BC
:1004C00011440A6803681A430A60184A083212681D
:1004D00003689A43154B08331A601A1D12680368A3
:1004E0009A43124B0C331A604279102A0ED11A1F0C
:1004F000126803681A430D4B08331A601A1D1268FC
:1005000003681A43094B0C331A600DE0074942791E
:1005100011440A6803681A430A6005E0027911442D
:100520000A6803689A430A6070470000003C014073
:1005300000B585B00121802001F0BEFD01218803B6
:1005400001F0DAFD00208DF810008DF812008DF812
:1005500013004020039003A9124800F015FA062169
:10056000072001F093FE4020019000208DF8080044
:100570000C208DF8090001208DF80A0001A8FFF772
:100580008DFF17208DF8000001208DF8010000205C
:100590008DF8020001208DF80300684600F0EAFCA7
:1005A00005B000BD001C0240014908607047000012
:1005B0000C3C024070B504460A460026092502B9E3
:1005C00009E0012A01D1160205E0022A01D1160232
:1005D00001E04FF4407600F061F90546092D28D17D
:1005E0001548006820F44070134908600846006808
:1005F000304308600846006820F0F80008600846AC
:10060000006844F0020108430B490860084600688E
:1006100040F48030086000F041F905460648006863
:1006200020F00200044908600846006820F0F80045
:100630000860284670BD0000103C024009201349A4
:10064000096801F48031B1F5803F01D101201CE03F
:100650000E49096801F0100109B1062015E00B49A7
:10066000096801F4807109B102200EE007490968A8
:1006700001F0E00109B1072007E00449096801F031
:10068000020109B1082000E0092070470C3C02403B
:100690001CB508200190022000900D4800F0E0F900
:1006A00001900198C10801208840401E40F6FF716A
:1006B000081A009000F08CF80021009800F09AF8D9
:1006C00000F076F8092801D002201CBD0120FCE7CB
:1006D000000001081CB5044608200190022000908B
:1006E000204600F0BDF901900198C1080120884022
:1006F000401E40F6FF71081A009000F069F80121D1
:10070000009800F077F800F053F8092801D0022093
:100710001CBD0120FCE7000070B50646082500243A
:10072000094800F09DF905462C4608E002212046C4
:10073000FFF740FF092801D0012070BD0834582C74
:10074000F4D90020F9E700000000010810B500F01E
:1007500093F8F320FFF728FF10BD00002DE9F041CA
:1007600004460E461746002500BF16E056F8251031
:10077000206800F059F809280CD12068006856F864
:100780002510884202D00220BDE8F0812068001DBB
:10079000206001E00120F7E76D1CBD4203D2206814
:1007A00002498842E2D90020EEE70000FBFF0F0873
:1007B00000B509220548007840F00200034908709E
:1007C00000F06CF80246104600BD0000143C0240E8
:1007D0000548006800F0010028B1044802490C39BE
:1007E0000860034808607047143C02403B2A19081F
:1007F0007F6E5D4C30B502460C46092500F04EF880
:100800000546092D0CD12CB10648008890430549B6
:10081000088005E00348008891B208430149088038
:1008200030BD0000163C024030B502460C4609259A
:1008300000F034F80546092D19D10E48006820F45F
:1008400040700C4908600846006840F40070086079
:100850000846006840F001000860146000F01EF8CF
:1008600005460448006820F0010002490860284657
:1008700030BD0000103C02400548006800F0004018
:1008800028B1044802490C390860034808607047E1
:10089000103C024023016745AB89EFCD08B5092024
:1008A0000090FFF7CBFE009002E0FFF7C7FE00903C
:1008B0009DF800000128F8D09DF8000008BDF0B5B3
:1008C0000446B4F80001801E81B2A01CFFF7A2FC10
:1008D000074694F8FF00401CFF2805DAFF34227811
:1008E000501C2070FF3CA75494F8FF00A4F80001AE
:1008F00094F8FF00401CFF2806DA390AFF342278FA
:10090000501C2070FF3CA15494F8FF00A4F8000193
:100910000026022506E0605D7F2801D1701CC6B26A
:10092000681CC5B2B4F80001A842F4DC002E1CDD3E
:10093000B4F800013044A4F8000194F80001401E0E
:10094000801BC5B20EE0605D7F2804D18120A9190B
:100950006054701EC6B206B906E0605DA919605405
:10096000681EC5B2022DEEDA00BF7F20B4F8001178
:1009700060547F21B4F80001401C2154B4F80001F8
:10098000801CA4F80001F0BDF0B50A460021002348
:10099000002400BF3DE0012505FA01F3156805EAD2
:1009A00003049C4234D105684F000326BE40B54382
:1009B000056015794E00B540066835430560157928
:1009C000012D02D01579022D16D185684F0003261E
:1009D000BE40B543856055794E00B54086683543C5
:1009E0008560456801268E40B54345604568967927
:1009F0008E40B6B235434560C5684F000326BE4001
:100A0000B543C560D5794E00B540C6683543C5606D
:100A1000491C1029BFD3F0BDF0B5002300244D07B9
:100A2000ED0E02FA05F3CE1000F1200555F8265020
:100A30004E07F70E0F26BE40B543CF1000F120063B
:100A400046F82750CE1000F1200555F8265045EA0B
:100A50000304CE1000F1200545F82640F0BD00004B
:100A6000014600202C4A914203D2B1F1006F00D31D
:100A700050E02A4A914204D2274A914201D30820E9
:100A800048E0274A914204D2244A914201D31020DF
:100A900040E0244A914204D2214A914201D31820D5
:100AA00038E0214A914204D21E4A914201D32020CB
:100AB00030E01E4A914204D21B4A914201D32820C1
:100AC00028E01B4A914204D2184A914201D33020B7
:100AD00020E0184A914204D2154A914201D33820AD
:100AE00018E0154A914204D2124A914201D34020A3
:100AF00010E0124A914204D20F4A914201D3482099
:100B000008E00F4A914204D20C4A914201D350208E
:100B100000E05820704700000040000800800008F6
:100B200000C00008000001080000020800000408DE
:100B3000000006080000080800000A0800000C0871
:100B400000000E0809A100200BE00A5C124B9A80FD
:100B500000BF114A128802F04002002AF9D0421C5C
:100B6000D0B22A28F1D300BFFEE700000D0A456E7F
:100B700074657220486172644661756C745F486187
:100B80006E646C65722C2053797374656D204861B6
:100B90006C742E0D0A0000000010014000B587B0F3
:100BA0000121084601F088FA0121102001F0A4FA81
:100BB00007220921AA48FFF72FFF07220A21A84888
:100BC000FFF72AFF00208DF81A0001208DF81B0086
:100BD00002208DF818000002059002208DF81900FF
:100BE00005A99F48FFF7D0FE02208DF818004002AB
:100BF000059005A99A48FFF7C7FE4FF4E130019030
:100C00000020ADF80800ADF80A00ADF80C00ADF812
:100C100010000C20ADF80E0001A9924801F01EFF53
:100C2000012240F225518F4801F0F2FE01218D484A
:100C300001F0ABFE40218B4801F09EFE01210846E9
:100C400001F03AFA0121480401F046FA0722032193
:100C50008348FFF7E1FE00208DF81A0001208DF88F
:100C60001B0002208DF818008DF818000820059050
:100C700002208DF8190005A97948FFF785FE4FF489
:100C8000165001900020ADF80800ADF80A00ADF84C
:100C90000C00ADF810000420ADF80E0001A9724858
:100CA00001F0DCFE012240F225516F4801F0B0FE58
:100CB00001216D4801F069FE40216B4801F05CFEA6
:100CC0000121022001F0F8F901208DF81800002020
:100CD0008DF81A008DF81B0003208DF819000420F0
:100CE000059005A96148FFF74FFE0121022001F0A0
:100CF000E3F90121880401F0EFF907220A215B489A
:100D0000FFF78AFE07220B215848FFF785FE0020D7
:100D10008DF81A0001208DF81B0002208DF81800B4
:100D20004002059002208DF8190005A94F48FFF7F1
:100D30002BFE02208DF818008002059005A94B4873
:100D4000FFF722FE4FF4165001900020ADF8080086
:100D5000ADF80A00ADF80C00ADF810000C20ADF8AD
:100D60000E0001A9424801F079FE012240F225510E
:100D70003F4801F04DFE01213D4801F006FE4021B3
:100D80003B4801F0F9FD0121442001F095F90121D2
:100D9000202001F0B1F908220E213648FFF73CFE71
:100DA000082207213448FFF737FE08221146314850
:100DB000FFF732FE08220F212E48FFF72DFE0020FC
:100DC0008DF81A0001208DF81B0002208DF8180004
:100DD0004003059002208DF8190005A92548FFF76A
:100DE000D3FD02208DF818008020059005A9224827
:100DF000FFF7CAFD02208DF81800C001059005A973
:100E00001C48FFF7C1FD02208DF8180080030590F3
:100E100005A91848FFF7B8FD4FF4E1300190002014
:100E2000ADF80800ADF80A00ADF80C00ADF8100000
:100E30000C20ADF80E0001A9104801F00FFE0122B0
:100E400040F225510D4801F0E3FD01210B4801F06E
:100E50009CFD4021094801F08FFD07B000BD000056
:100E60000000024000100140004400400004024025
:100E700000480040001802400008024000140140F1
:100E80000448006900F4807008B901207047002010
:100E9000FCE700000020024010B5FFF7F1FF20B191
:100EA00000F006F808B1012010BD0020FCE70000AA
:100EB0000448006800F4005008B901207047002081
:100EC000FCE70000100802400448006900F40060DC
:100ED00008B9012070470020FCE700000020024014
:100EE0000448006800F0040008B9012070470020A1
:100EF000FCE70000101C02400448006800F00800F5
:100F000008B9012070470020FCE70000101C0240D7
:100F10000448006800F4006008B901207047002010
:100F2000FCE70000101402400448006800F0800054
:100F300008B9012070470020FCE7000010180240AB
:100F40000448006800F4004008B901207047002000
:100F5000FCE70000101C024010B5FFF791FF20B124
:100F6000FFF7A6FF08B1012010BD0020FCE700BF7D
:100F7000FEE7704770B5002100230F22C4781CB330
:100F8000174C246804F4E064C4F5E064C4F307215A
:100F9000C1F10404E3B20A4144789C40E1B2847890
:100FA000144021430C07210E0E4C0578615504783E
:100FB00004F01F050124AC4005786D11AD0005F16A
:100FC000E025C5F8004109E0047804F01F0501247C
:100FD000AC40054D0678761145F8264070BD0000FE
:100FE0000CED00E000E400E080E100E00249014394
:100FF000024A1160704700000000FA050CED00E0A5
:10100000BFF34F8F0648006800F4E06005490843CD
:10101000001D03490860BFF34F8F00BFFEE70000CB
:101020000CED00E00000FA0501490862704700007D
:1010300000000E42F0B500EBC01303EB4023CE4C92
:1010400004EB430393F8F93133B1012B11D0022B98
:1010500030D0032B7DD17DE07F2909D1012300EB26
:10106000C01404EB4024C44D05EB440484F8F9316A
:101070007FE17F2913D1022300EBC01404EB40244D
:10108000BD4D05EB440484F8F931002300EBC01496
:1010900004EB402405EB440484F8F83109E0002314
:1010A00000EBC01404EB4024B34D05EB440484F87A
:1010B000F9315EE17F290AD1032300EBC01404EB70
:1010C0004024AD4D05EB440484F8F93140E000EBD9
:1010D000C01303EB4023A84C04EB430393F8F841FF
:1010E00000EBC01303EB4023A34D05EB430393F840
:1010F000F8315B1C00EBC01505EB40259E4E06EB5E
:10110000450585F8F83100EBC01303EB4023354665
:1011100005EB4303FD33195500EBC01303EB4023EC
:101120002C4604EB430393F8F831FA2B10DB002331
:1011300000EBC01404EB402405EB440484F8F931BF
:1011400000EBC01404EB402405EB440484F8F831B0
:101150000FE10DE181294ED17F2400EBC01303EB99
:101160004023854D05EB430393F8F85100EBC01382
:1011700003EB4023804E06EB430393F8F8315B1CEE
:1011800000EBC01606EB40267B4F07EB460686F8C1
:10119000F83100EBC01303EB40233E4606EB43035C
:1011A000FD335C5500EBC01303EB4023344604EBE6
:1011B000430393F8F831FA2B12DB002300EBC01441
:1011C00004EB4024354605EB440484F8F93100EB88
:1011D000C01404EB402405EB440484F8F831C6E065
:1011E000022300EBC01404EB4024634D05EB4404E0
:1011F00084F8F931BBE07F297DD100EBC01303EB0C
:1012000040235D4C04EB430393F8F83153B90223B8
:1012100000EBC01404EB4024574D05EB440484F864
:10122000F931A4E000EBC01303EB4023524C04EB74
:10123000430393F8F84100EBC01303EB40234E4DFA
:1012400005EB430303F5FD7300EBC01505EB4025EB
:10125000494E06EB450595F8005505EBC51503EB22
:101260004503A3F80041002400EBC01303EB402327
:10127000354605EB430303F5FD7300EBC01505EBA5
:10128000402506EB450595F8005505EBC51503EB24
:10129000450383F8FF40002221E000EBC01303EB7D
:1012A0004023354C04EB4303FD339C5C00EBC0133F
:1012B00003EB4023304D05EB430303F5FD7300EBD7
:1012C000C01505EB40252C4E06EB450595F800555D
:1012D00005EBC51503EB45039C54531CDAB200EB38
:1012E000C01303EB4023244C04EB430393F8F83181
:1012F0009342D2DC00E030E000EBC01303EB40236C
:1013000004EB430393F800355B1C00EBC01404EBC3
:101310004024194D05EB440484F8003500EBC0135C
:1013200003EB40232C4604EB430393F80035032BD7
:1013300008DB002300EBC01404EB402405EB44045D
:1013400084F80035002300EBC01404EB40240A4D60
:1013500005EB440484F8F93109E0002300EBC014E4
:1013600004EB4024044D05EB440484F8F93100E01B
:1013700000BF00BFF0BD0000022200202DE9F843AD
:10138000044694F8FF00401CB4F80011884206DCC3
:10139000FF342178481C2070FF3C675C00E0002788
:1013A00094F8FF00401CB4F80011884206DCFF34BA
:1013B0002178481C2070FF3C675C00E0002700207B
:1013C000FE4981F8FF00A1F80001087094F8FF00C1
:1013D000401CB4F80011884206DCFF342178481C18
:1013E0002070FF3C675C00E00027F02F06D0F12F53
:1013F0007ED0F22F7DD0F32F7CD1F7E394F8FF005D
:10140000401CB4F80011884208DCFF342178481CE5
:101410002070FF3C605CEA49087002E00020E84967
:10142000087094F8FF00401CB4F80011884208DCF2
:10143000FF342178481C2070FF3C605CE049487014
:1014400002E00020DE49487094F8FF00401CB4F828
:101450000011884208DCFF342178481C2070FF3CD2
:10146000605CD749887002E00020D549887094F804
:10147000FF00401CB4F80011884208DCFF342178DA
:10148000481C2070FF3C605CCD49C87002E0002021
:10149000CB49C87094F8FF00401CB4F80011884292
:1014A00008DCFF342178481C2070FF3C605CC44994
:1014B000087102E00020C2490871C1480078422842
:1014C0007DD1BF4840784C28FAD1BD4880784B2860
:1014D000F6D1BB48C0784528F2D1B94800795928DF
:1014E000EED1B64890F8FF00401CFF280FDA02E06A
:1014F00030E175E2FDE37F22B04890F8FF1090F8EC
:10150000FF00401CAD4B83F8FF0018464254AB4827
:1015100090F8FF00A949A1F80001084690F8FF00E3
:10152000401CFF280BDA7F21A44890F8FF2090F898
:10153000FF00401CA14B83F8FF00184681549F48D0
:1015400090F8FF009D49A1F80001084690F8FF00BF
:10155000801CFF2819DA9B48817C984890F8FF206E
:1015600090F8FF00401C954B83F8FF00184681540B
:101570009448408A020A184690F8FF1090F8FF003D
:10158000401C83F8FF00184642548C4890F8FF0036
:101590008A49A1F80001084690F8FF00401CFF2886
:1015A0000BDAF021854890F8FF2090F8FF00401CEE
:1015B000824B83F8FF0018468154804800E03CE0ED
:1015C00090F8FF007D49A1F80001084690F8FF005F
:1015D000401CFF280BDA0021784890F8FF2090F893
:1015E000FF00401C754B83F8FF0018468154734878
:1015F00090F8FF007149A1F8000100251AE06F483A
:1016000090F8FF00401CFF280CDA6F48415D6B48E2
:1016100090F8FF2090F8FF00401C684B83F8FF0013
:1016200018468154654890F8FF006449A1F800010C
:10163000681CC5B2142DE2DB85E0604890F8FF001D
:10164000401CFF280BDA7F215C4890F8FF2090F8BF
:10165000FF00401C594B83F8FF001846815457483F
:1016600090F8FF005549A1F80001084690F8FF00E6
:10167000401CFF280BDA7F21504890F8FF2090F89B
:10168000FF00401C4D4B83F8FF00184681544B4827
:1016900090F8FF004949A1F80001084690F8FF00C2
:1016A000801CFF2819DA4748827C084690F8FF1012
:1016B00090F8FF00401C414B83F8FF00184642544D
:1016C0004048408A010A184690F8FF2090F8FF0031
:1016D000401C83F8FF0018468154384890F8FF00FA
:1016E0003649A1F80001084690F8FF00401CFF2889
:1016F0000BDAF022084690F8FF1090F8FF00401C2B
:101700002E4B83F8FF00184642542C4890F8FF00F7
:101710002A49A1F80001084690F8FF00401CFF2864
:101720000BDA0121254890F8FF2090F8FF00401CBB
:10173000224B83F8FF0018468154204890F8FF00A0
:101740001E49A1F800011D48FFF7B9F81B4800F039
:10175000BDFDFCE394F8FF00401CB4F80011884282
:1017600008DCFF342178481C2070FF3C605C144981
:10177000087002E000201249087094F8FF00001D74
:10178000B4F80011884226DCFF342178481C207010
:10179000FF3C665CFF342178481C2070FF3C605C95
:1017A00006EB0026FF342178481C2070FF3C605C6B
:1017B00006EB0046FF342178481C07E00C37002078
:1017C00024000020EC2100200E3800202070FF3C77
:1017D000605C06EB006694F8FF00401CB4F8001152
:1017E000884208DCFF342178481C2070FF3C605C94
:1017F000F949487002E00020F7494870002514E0DC
:1018000094F8FF00401CB4F80011884208DCFF3453
:101810002178481C2070FF3C605CF049485502E08C
:101820000020EE494855681CC5B2EB484078A842F4
:10183000E6DCEB4830440090E74890F801904FEA2E
:10184000E97009EB90708210E4496846FEF786FF64
:10185000E2490870E34890F8FF00401CFF280BDACB
:101860007F21E04890F8FF2090F8FF00401CDD4BFE
:1018700083F8FF0018468154DA4890F8FF00D949F0
:10188000A1F80001084690F8FF00401CFF280BDA81
:101890007F21D44890F8FF2090F8FF00401CD14BE6
:1018A00083F8FF0018468154CE4890F8FF00CD49D8
:1018B000A1F80001084690F8FF00801CFF2819DA03
:1018C000C948817CC74890F8FF2090F8FF00401C71
:1018D000C44B83F8FF0018468154C348408A010A6C
:1018E000184690F8FF2090F8FF00401C83F8FF0096
:1018F00018468154BB4890F8FF00BA49A1F800018E
:10190000084690F8FF00401CFF280BDAF122084639
:1019100090F8FF1090F8FF00401CB24B83F8FF00D6
:1019200018464254AF4890F8FF00AE49A1F80001B4
:10193000084690F8FF00401CFF280CDAA748027800
:10194000084690F8FF1090F8FF00401CA54B83F864
:10195000FF0018464254A34890F8FF00A149A1F89F
:101960000001084690F8FF00001DFF282BDA08460A
:1019700090F8FF1090F8FF00401C9A4B83F8FF008E
:1019800018464654C6F3072190F8FF2090F8FF0050
:10199000401C83F8FF0018468154C6F3074290F8B4
:1019A000FF1090F8FF00401C83F8FF0018464254D7
:1019B000300E194691F8FF2091F8FF10491C83F86A
:1019C000FF1019468854874890F8FF008549A1F810
:1019D00000010846FEF773FF824800F077FC64E3DD
:1019E00094F8FF00401CB4F80011884208DCFF3472
:1019F0002178481C2070FF3C605C7749087002E049
:101A000000207549087094F8FF00401CB4F80011DC
:101A1000884208DCFF342178481C2070FF3C605C61
:101A20006D49487002E000206B49487094F8FF004F
:101A3000401CB4F80011884208DCFF342178481CAF
:101A40002070FF3C605C6449887002E000206249BD
:101A5000887094F8FF00401CB4F80011884208DC3C
:101A6000FF342178481C2070FF3C605C5A49C870E4
:101A700002E000205849C87094F8FF00401CB4F8F8
:101A80000011884208DCFF342178481C2070FF3C9C
:101A9000605C5149087102E000204F4908714E48CE
:101AA000007842287ED14C4840784C287AD14A4868
:101AB00080784B2876D14848C078452872D146486E
:101AC000007959286ED1474890F8FF00401CFF2844
:101AD0000BDA7F21434890F8FF2090F8FF00401C6C
:101AE000404B83F8FF00184681543E4890F8FF00B1
:101AF0003C49A1F80001084690F8FF00401CFF286F
:101B00000BDA7F21374890F8FF2090F8FF00401C47
:101B1000344B83F8FF0018468154324890F8FF0098
:101B20003049A1F80001084690F8FF00801CFF280A
:101B300019DA2D48817C2B4890F8FF2090F8FF009F
:101B4000401C284B83F8FF00184681542648408AE1
:101B5000010A184690F8FF2090F8FF00401C83F817
:101B6000FF00184681541F4890F8FF001D49A1F856
:101B70000001084690F8FF00401CFF280BDAF22114
:101B8000184890F8FF2090F8FF00401C154B83F890
:101B9000FF0018468154134890F8FF001149A1F83E
:101BA000000100E023E0084690F8FF00401CFF28F9
:101BB0000BDA0022084690F8FF1090F8FF00401C56
:101BC000084B83F8FF0018464254064890F8FF007F
:101BD0000449A1F8000192E0240000200E38002002
:101BE000000001080C370020EC2100209EE0FE4898
:101BF00090F8FF00401CFF280BDA7F21FA4890F88C
:101C0000FF2090F8FF00401CF74B83F8FF001846B8
:101C10008154F54890F8FF00F349A1F80001084607
:101C200090F8FF00401CFF280BDA7F21EE4890F867
:101C3000FF2090F8FF00401CEB4B83F8FF00184694
:101C40008154E94890F8FF00E749A1F800010846EF
:101C500090F8FF00801CFF2819DAE448817CE248F4
:101C600090F8FF2090F8FF00401CDF4B83F8FF0046
:101C700018468154DD48408A010A184690F8FF2032
:101C800090F8FF00401C83F8FF0018468154D648A6
:101C900090F8FF00D449A1F80001084690F8FF0031
:101CA000401CFF280BDAF221CF4890F8FF2090F873
:101CB000FF00401CCC4B83F8FF0018468154CA48F3
:101CC00090F8FF00C849A1F80001084690F8FF000D
:101CD000401CFF280BDA0122084690F8FF1090F80C
:101CE000FF00401CC04B83F8FF0018464254BE481A
:101CF00000E0D9E190F8FF00BB49A1F80001BA4823
:101D0000FEF7DDFDB84800F0E1FAB948FEF7E2FC65
:101D1000B848D0F8008000BFB6480068A0EB0800C3
:101D200041F288318842F7D3FFF76AF994F8FF004F
:101D3000401CB4F80011884208DCFF342178481CAC
:101D40002070FF3C605CAC49087002E00020AA49AA
:101D5000087094F8FF00401CB4F80011884208DCB9
:101D6000FF342178481C2070FF3C605CA249487019
:101D700002E00020A049487094F8FF00401CB4F82D
:101D80000011884208DCFF342178481C2070FF3C99
:101D9000605C9949887002E000209749887094F847
:101DA000FF00401CB4F80011884208DCFF342178A1
:101DB000481C2070FF3C605C8F49C87002E0002026
:101DC0008D49C87094F8FF00401CB4F80011884297
:101DD00008DCFF342178481C2070FF3C605C864999
:101DE000087102E000208449087183480078422885
:101DF0007ED1814840784C287AD17F4880784B2822
:101E000076D17D48C078452872D17B480079592821
:101E10006ED194F8FF00801CB4F80011884213DCE6
:101E2000FF342178481C2070FF3C605C6F49488279
:101E3000FF342178481C2070FF3C605C6B49498A64
:101E400001EB002069494882FEF722FC0020FEF7E2
:101E500063FC012069490870634890F8FF00401C4A
:101E6000FF280BDA7F22604890F8FF1090F8FF00FF
:101E7000401C5D4B83F8FF00184642545A4890F8C6
:101E8000FF005949A1F80001084690F8FF00401CE6
:101E9000FF280BDA7F22084690F8FF1090F8FF0029
:101EA000401C514B83F8FF00184642544E4890F8AE
:101EB000FF004D49A1F80001084690F8FF00801C82
:101EC000FF281BDA4948827C084690F8FF1090F8FA
:101ED000FF00401C444B83F8FF001846425443481F
:101EE000408A010A184690F8FF2090F8FF0000E0B1
:101EF0003DE0401C83F8FF00184681543A4890F8B2
:101F0000FF003949A1F80001084690F8FF00401C85
:101F1000FF280BDAF321344890F8FF2090F8FF00F7
:101F2000401C314B83F8FF00184681542E4890F82E
:101F3000FF002D49A1F80001084690F8FF00401C61
:101F4000FF280DDA0021284890F8FF2000E0ACE0DF
:101F500090F8FF00401C244B83F8FF001846815482
:101F6000214890F8FF002049A1F8000195E00020E9
:101F7000224908701C4890F8FF00401CFF280BDA2B
:101F80007F21194890F8FF2090F8FF00401C164B65
:101F900083F8FF0018468154134890F8FF00124957
:101FA000A1F80001084690F8FF00401CFF280BDA5A
:101FB0007F210D4890F8FF2090F8FF00401C0A4B4D
:101FC00083F8FF0018468154074890F8FF0006493F
:101FD000A1F80001084690F8FF00801CFF2826DACF
:101FE0000248817C00480BE00C370020EC210020E7
:101FF0000000010800000020240000202300002031
:1020000090F8FF2090F8FF00401C294B83F8FF0058
:10201000184681542748408A010A184690F8FF2044
:1020200090F8FF00401C83F8FF00184681542048B8
:1020300090F8FF001E49A1F80001084690F8FF0043
:10204000401CFF280BDAF322084690F8FF1090F8A6
:10205000FF00401C164B83F8FF00184642541448FA
:1020600090F8FF001249A1F80001084690F8FF001F
:10207000401CFF280BDA01210D4890F8FF2090F852
:10208000FF00401C0A4B83F8FF00184681540848A3
:1020900090F8FF000649A1F800010548FEF70FFC83
:1020A000034800F013F900E000BF00BFBDE8F8836B
:1020B0000C370020EC21002029B1064A12680243A7
:1020C000044B1A6004E0034A12688243014B1A6011
:1020D000704700003038024029B1064A12680243B6
:1020E000044B1A6004E0034A12688243014B1A60F1
:1020F000704700004038024029B1064A1268024386
:10210000044B1A6004E0034A12688243014B1A60D0
:102110007047000044380240F0B50021002200243E
:10212000022500260223324F3F6807F00C0121B13F
:10213000042905D0082937D105E02E4F076036E085
:102140002D4F076033E02A4F3F1F3F68C7F380568B
:10215000274F3F1F3F6807F03F036EB1264FB7FB85
:10216000F3F7DFF88CC0ACF1040CDCF800C0CCF362
:10217000881C07FB0CF40CE01E4FB7FBF3F7DFF8ED
:1021800070C0ACF1040CDCF800C0CCF3881C07FB79
:102190000CF4174F3F1F3F68C7F301477F1C7D00BA
:1021A000B4FBF5F7076002E0124F076000BF00BF05
:1021B0000F4F3F6807F0F0010909104F7A5C07687C
:1021C000D74047600A4F3F6807F4E051890A0B4F38
:1021D0007A5C4768D7408760054F3F6807F46041E5
:1021E000490B064F7A5C4768D740C760F0BD0000D6
:1021F000083802400024F40040787D014A000020A5
:102200001CB501210220FFF757FF01208DF80400C3
:1022100000208DF806008DF8070003208DF80500DA
:102220000420009069460248FEF7AEFB1CBD00008A
:1022300000040240704700000420014908807047F4
:102240001804024004200149088070471A04024023
:1022500008B501460020009004480090009800EB6B
:10226000810000900098006808BD000050280040E0
:1022700008B500220092044A0092009A02EB800204
:102280000092009A116008BD5028004030B500222D
:102290008B071C0F0F2303FA04F20B4B8C1053F81F
:1022A00024309343084C8D1044F8253023468C107D
:1022B00053F824308C07240F00FA04F42343024C13
:1022C0008D1044F8253030BD083801402DE9F0412B
:1022D000044694F8008105F0EFFF1648007804F0FA
:1022E000E3F8012823D11348007804F0BDFB07462A
:1022F000A8EB070000F0FF08B8F1000F02DA08EBC6
:10230000070087B2384604F0B5F90646002503E019
:10231000605D7055681CC5B2B4F80001A842F7DCD6
:10232000B4F8002131460348007805F027FDBDE8E8
:10233000F0810000220000200CB5002001900090E8
:102340003448006840F480303249086000BF3148AA
:10235000006800F4003000900198401C0190009843
:1023600018B90198B0F5A04FF1D12A48006800F4DF
:10237000003010B10120009001E000200090009892
:10238000012846D123484030006840F08050214960
:10239000403108602048006840F440401E49086011
:1023A0001C48083000681B4908310860084600686E
:1023B00040F4004008600846006840F4A0500860FF
:1023C0001648091F0860081F006840F08070091F48
:1023D000086000BF0F48006800F000700028F9D0C6
:1023E00040F205700E4908600A480830006820F085
:1023F00003000849083108600846006840F0020000
:10240000086000BF03480830006800F00C0008288E
:10241000F8D10CBD0038024000700040195440074C
:10242000003C024010B500F001F810BD10B51B488B
:10243000006840B119480068401E1849086010B98A
:10244000012017490870002408E004EB4401154AF4
:1024500002EB810001F05AFF601CC4B2042CF4DBD3
:1024600011480068401C10490860084600686FF079
:102470000041884202D100200B49086001F038FF7A
:102480000A480078401CC0B2084908700A2803DBDB
:102490000020087001F028FF10BD00002C00002073
:1024A000300000208839002034000020480000203F
:1024B00010B51548006840F47000134908601348CF
:1024C000006840F001001149086000200F49083100
:1024D00008600E4800680E4908400C4908600D4825
:1024E000091D0860081F006820F48020091F08608B
:1024F000002006490C310860FFF71EFF4FF0006016
:1025000001498039086010BD88ED00E000380240C4
:10251000FFFFF6FE1030002410B51048007804F0DC
:1025200043F930B1012805D002280FD00A2810D174
:102530000DE000BF40F2E9310848007804F070F97E
:10254000C4B2214606A000F0EFFB03E002E0012048
:1025500010BD00BF00BF0020FAE7000022000020ED
:10256000746370206C697374656E20726573203DAE
:102570002025640D0A000000FEF7E8F802F072FE64
:10258000344B0A220021112004F096F832490870D9
:102590000846007850B140F2E9312F48007804F045
:1025A0003FF9C7B239462DA000F0BEFB64210020E0
:1025B00001F0BAFE4DE02F48007858B92E48006867
:1025C00042F21071884205D92348007803F0BAFF1F
:1025D000FEF716FD05F070FEFFF79EFF064601F0C0
:1025E00089FC04466CB3012E2BD1012C27D1002588
:1025F00018E0224890F8FF00401CFF280ADA1F4824
:1026000090F8FF1090F8FF00401C1C4A82F8FF0071
:1026100010464554194890F8FF001849A1F80001E8
:10262000681CC5B2082DE4DB1448FFF74FFE0020FC
:10263000124981F8FF00A1F80001087000E000BF16
:1026400000BF0F48007DFF2803D00D49087D00F032
:10265000D5F8B0E769630008220000207463702099
:102660006C697374656E20726573203D2025640D5E
:102670000A00000023000020000000200C3700208A
:10268000EC21002010B50221214800F05AF858B181
:1026900002211F4800F046F8002202211C4800F0E9
:1026A00061F81C48006880470421194800F049F887
:1026B00058B10421164800F035F8002204211448CE
:1026C00000F050F81448006880470821104800F0D6
:1026D00038F858B108210E4800F024F800220821EB
:1026E0000B4800F03FF80D4800688047102108486B
:1026F00000F027F858B11021054800F013F8002227
:102700001021034800F02EF805480068804710BDEE
:10271000000C0040380000203C0000204000002059
:1027200044000020CA430282704721B1028842F06F
:102730000102028004E002884FF6FE731A40028014
:10274000704730B50246002000230024158A05EAB0
:102750000103958905EA010413B10CB1012000E0E1
:10276000002030BD1AB183890B43838102E0838945
:102770008B4383817047000000220288184B9842E7
:102780000ED0184B98420BD0B0F1804F08D0164BAA
:10279000984205D0154B984202D0154B984204D16F
:1027A0004FF68F731A404B881A43124B984207D04A
:1027B000114B984204D04FF6FF431A400B891A433D
:1027C00002804B68C3620B880385054B984202D098
:1027D000044B984201D18B7A038601238382704790
:1027E00000000140000401400004004000080040D7
:1027F000000C0040001000400014004070B504467A
:10280000FF25002671E004EBC41000EB4420494989
:1028100001EB400000F5FD7004EBC41101EB442115
:10282000444A02EB410191F8011501EBC11100EBA3
:102830004100B0F8000100282EDD04EBC41000EBCD
:102840004420114601EB400090F8015504EBC41000
:1028500000EB442001EB400090F80105401C04EB24
:10286000C41101EB442102EB410181F8010504EBA5
:10287000C41000EB4420114601EB400090F8010524
:10288000032808DB002004EBC41101EB442102EB18
:10289000410181F801052AE004EBC41000EB44205B
:1028A000244901EB400090F80105401C04EBC411E1
:1028B00001EB44211F4A02EB410181F8010504EBC1
:1028C000C41000EB4420114601EB400090F80105D4
:1028D000032808DB002004EBC41101EB442102EBC8
:1028E000410181F80105701CC6B2032E8BDB00BFCD
:1028F000FF2D1ED004EBC41101EB44210D4A02EB65
:10290000410101F5FD7105EBC51201EB4200FEF737
:1029100035FD002104EBC41000EB4420054A02EB16
:10292000400000F5FD7005EBC51200EB4200A0F879
:10293000001170BD0222002010B5024800F001F91C
:1029400010BD0000B839002010B5024800F0F9F8B9
:1029500010BD0000E041002010B5024800F0F1F881
:1029600010BD0000084A002010B5024800F0E9F848
:1029700010BD00003052002001F40072B2F5007F5B
:1029800000D100BFCA430280704721B1828942F45E
:102990000052828104E082894DF6FF731A408281E1
:1029A000704702460020B1F5007F00D100BF1388B8
:1029B0000B400BB1012000E00020704770B50246CB
:1029C000002400230025002040F66A16B14200D101
:1029D00000BFC1F3421501F01F03012606FA03F3FD
:1029E000012D02D19689334006E0022D02D1168ACC
:1029F000334001E0968A33400C12012606FA04F4B3
:102A00001688344013B10CB1012000E0002070BDE5
:102A1000F0B50346002400260025002040F66A1782
:102A2000B94200D100BF1846C1F3421401F01F069D
:102A3000012707FA06F5012C01D10C3004E0022C25
:102A400001D1103000E014301AB107682F4307603D
:102A500002E00768AF430760F0BD00002DE9FF47C3
:102A600005460E460024A14600BFA046B08900B12D
:102A700000BF2C8A24F44054F08804432C82AC8993
:102A800041F20C608443B08831890843718908435E
:102A90000443AC81AC8A24F44074B0890443AC8212
:102AA0006846FFF739FB2048854202D01F4885421F
:102AB00002D1DDF80C9001E0DDF80890A88900F45F
:102AC000004040B109EBC90000EB09103168490032
:102AD000B0FBF1F707E009EBC90000EB0910316822
:102AE0008900B0FBF1F76420B7FBF0F00401200986
:102AF000642101FB1078A88900F4004040B1322025
:102B000000EBC800B0FBF1F000F00700044308E060
:102B1000322000EB08106421B0FBF1F000F00F0050
:102B200004432C81BDE8FF870010014000140140E0
:102B300001468888C0F308007047C1F3080282800C
:102B4000704770B5044640F225512068FFF736FF04
:102B5000E0B12068FFF7ECFFC5B2E18AA0684554F8
:102B6000E08A401C80B2E082E189884201DB0020DB
:102B7000E082608BE189884202DA608B401C6083CE
:102B8000606A10B12846616A884700BF40F2277129
:102B90002068FFF713FF08B3A08A60B9002240F253
:102BA00027712068FFF734FF012240F22661206878
:102BB000FFF72EFF37E0638A6268D15C2068FFF779
:102BC000BCFF608A401C80B26082A189884201DB20
:102BD00000206082A08A401EA08224E040F226618C
:102BE0002068FFF7EBFEF0B1A08A50B9002240F256
:102BF00026612068FFF70CFF206AA0B1206A804799
:102C000011E0638A6268D15C2068FFF796FF608AF2
:102C1000401C80B26082A189884201DB0020608272
:102C2000A08A401EA08270BD2B482C4908602C4809
:102C300048602C4888604FF480608881C8810020FB
:102C400008824882C882088348838882C8610862F3
:102C5000486225482549086025484860254888601D
:102C600001208881C002C881002008824882C88271
:102C7000088348838882C861086248621E481F49E9
:102C800008601F4848601F4888604FF48060888152
:102C9000C881002008824882C882088348838882CD
:102CA0001948C861194808621948486219481A4900
:102CB00008601A4848601A4888604FF4806088812C
:102CC000C881002008824882C8820883488388829D
:102CD000C86108624862704700100140B83900209E
:102CE000E0390020E03D002000440040E0410020A9
:102CF000490000200842002000480040084A002007
:102D0000304A0020304E00203922000845220008B9
:102D10003522000800140140305200205852002093
:102D20005856002000BFFEE70FB4054B10B503A9AD
:102D3000044A029800F030F810BC5DF814FB000063
:102D4000D54C0008BC0000200FB4084B10B504A9F6
:102D500002AA039800F020F8044602A9002000F01F
:102D6000BCF9204610BC5DF814FB0000DB30000805
:102D70007047704702E008C8121F08C1002AFAD144
:102D800070477047002001E001C1121F002AFBD1EB
:102D9000704780F3108870472DE9FF4F8BB088464D
:102DA0000546002606E025280BD0DDE90D129047E8
:102DB0006D1C761C28780028F5D10FB03046BDE890
:102DC000F08F0024A146A2460122AE4900E0044350
:102DD00015F8013F203B02FA03F00842F7D12878AA
:102DE0002A2810D06FF02F022878A0F1300109298D
:102DF00015D809EB890102EB410144F0020400EB14
:102E000001096D1CF0E758F8041B5FEA010903D5BE
:102E100044F40054C9F1000944F002046D1C287800
:102E20002E2817D115F8010F44F004042A280ED0DB
:102E30006FF02F022878A0F1300109290AD80AEB97
:102E40008A0102EB410100EB010A6D1CF2E758F820
:102E500004AB6D1C28786C280FD006DC4C2817D0EA
:102E600068280DD06A2814D104E0742810D07A287C
:102E70000FD10DE044F400140AE044F4801401E0A2
:102E800044F440146978814202D104F580146D1C29
:102E90006D1C2878692865D006DC00288DD0632851
:102EA00027D0642806D15DE06E2808D073282AD088
:102EB000752877D0DDE90D129047761CE0E0C4F369
:102EC0000250022809D003280DD0D8F80010042899
:102ED0000DD00E6008F10408D2E0D8F80010F21707
:102EE000C1E90062F6E7D8F800100E80F2E70E7034
:102EF000F0E718F8041B8DF8001000208DF8010091
:102F0000EB46012003E058F804BB4FF0FF306107A7
:102F10004FF0000701D40AE07F1C57450DDA8742C5
:102F2000FADB1BF807100029F6D106E07F1C874268
:102F3000FCDB1BF807100029F8D1DDE90D23A9EB14
:102F400007008146214600F0B1F83044C61904E07C
:102F5000DDE90D121BF8010B90477F1EF8D22146C8
:102F6000484688E058F8040BC4F302514FF00A0BAE
:102F7000032900D100B2042900D140B2002802DAAE
:102F800040422D2102E0210505D52B218DF824108A
:102F9000012104E006E0E10710D02021F6E708AFA8
:102FA000089113E058F8040BC4F302514FF00A0BD8
:102FB000032900D180B2042900D1C0B20021EEE77C
:102FC0005946FDF7FDF8303107F8011D0028F7D10B
:102FD000ADEB070000F1200B600702D524F480342C
:102FE00001E04FF0010ADA4502DDAAEB0B0000E038
:102FF0000020824600EB0B0108980144A9EB010078
:103000000A90E00306D4DDE90D2321460A9800F07A
:103010004DF806444FF0000908E009A911F809002D
:10302000DDE90D12904709F10109761C08998945DF
:10303000F3DBE0030CD5DDE90D2321460A9800F00F
:1030400035F8064404E0DDE90D1230209047761C87
:10305000BAF10001AAF1010AF5DC05E0DDE90D1283
:1030600017F8010B9047761CBBF10001ABF1010B87
:10307000F4DC0A982146DDE90D2300F005F806444A
:103080006D1C97E6092801002DE9F0410446002552
:103090001E461746880404D405E039462020B04770
:1030A0006D1C641EF9D52846BDE8F0812DE9F0417C
:1030B000044600251E469046C80301D5302700E08F
:1030C0002027880404D505E041463846B0476D1CEA
:1030D000641EF9D52846BDE8F0810A68531C0B60D0
:1030E000107070472DE9F0473F4C0646E07B38B141
:1030F0003EA10020FFF73DFEB00F3DD1032039E097
:1031000026F040400F3020F00307002E08DB3A463F
:103110003CA10020FFF72CFE02F060FB0120E073D1
:10312000B00F4FF000090BD0206861683844884226
:1031300006D9E07B00B384F80F9002F057FB1BE048
:103140003448056828686A68411B891AB94216D252
:10315000054600680028F5D1E07B48B184F80F905F
:1031600002F044FBA3892CA100202268FFF701FE96
:10317000B00F01D103F0E5F80020BDE8F0873AB3C5
:10318000501929680160286000F10805476020682F
:1031900007442760A089401C80B2A081E17BD1B1A7
:1031A00094F80E8084F80E90824684F80F9002F016
:1031B0001DFBB8F1000F04D0424622A10020FFF70A
:1031C000D7FD53463A4625A10020FFF7D1FD05E083
:1031D0006F600835DBE7A07B401CA0732E80A5F84C
:1031E00002902846C9E700004C7F0020416C6C6FBC
:1031F000632C205265637572736976652063616C18
:103200006C0A0000416C6C6F632025642062797445
:1032100065730A00488A0008416C6C6F632C204E6D
:103220006F206D656D6F727920557365642025641C
:103230002062797465732C20256420626C6F636B47
:10324000730A0000204952515F416C6C6F63202566
:103250006420626C6F636B730A0000002055736515
:1032600064202564206279746573202825642062B7
:103270006C6F636B73290A002DE9F041884607469D
:1032800000F032FB00286DD03A4D00262C680BE090
:10329000207838B10422394604F10A0002F090FD8A
:1032A000012816D00E34761C2879B042F0DC32A109
:1032B0000420FFF75DFD3946012001F0A7F84146E3
:1032C000002001F0A3F82F49384602F007FD50B165
:1032D00025E0721C2CA10420FFF74AFD394601208D
:1032E00001F094F833E02748001D02F00AFF10B106
:1032F00000262C6810E0BDE8F0412AA10420FFF769
:1033000038BD207830B106224146201D02F058FD1C
:10331000012829D00E34761C2879B042F1DC012036
:1033200000F066F804001DD0024625A10420FFF736
:103330001FFDC4EBC4016FF00D0202EB41012868D0
:1033400004224418394604F10A0002F045FD062221
:103350004146201D02F040FD6879E070A879A07018
:1033600003202070BDE8F081721C1AA10420FFF731
:10337000FFFCF1E7588A000843616368655F4164B8
:10338000640A00005C7F002043616368652C20456F
:103390006E74727920256420726566726573686543
:1033A000640A000043616368655F6164642C2047C0
:1033B00061746577617920756E6B6E6F776E0A0048
:1033C00020456E7472792025642061646465640A06
:1033D000000000002043616368652C20456E747214
:1033E00079202564207265667265736865640A00D9
:1033F0002DE9F04123490446012005460A6803E00F
:1034000013784BB10E32401C0B798342F8DA00205E
:103410004E7901220B680DE015705470BDE8F08103
:103420005F78012F04D1DF78B74201D83E461046BD
:103430000E33521C0F799742F2DA88B94E79012285
:103440000B6809E05F78022F04D1DF78B74201D81A
:103450003E4610460E33521C0F799742F2DA50B1B5
:103460000968C0EBC0026FF00D0303EB4202114488
:103470000D704C70D2E704A10420FFF77AFC002005
:10348000CCE70000588A000843616368655F616C9F
:103490006C6F632C2043616368652066756C6C0AF1
:1034A000000000002DE9F0412A4C8846064600271E
:1034B00025680BE0287838B10422314605F10A006E
:1034C00002F07EFC012843D00E357F1C2079B842E3
:1034D000F0DC304600F008FA002839D01E493046AA
:1034E00002F0FCFB002833D01CA10420FFF740FCB5
:1034F0003146012000F08AFF4146002000F086FF9F
:103500000120FFF775FF050022D0024617A1042015
:10351000FFF72EFC104A3146002000F0F1FBC5EB0E
:10352000C5016FF00D0202EB41012068042245182D
:10353000314605F10A0002F04FFC06224146281DE3
:1035400002F04AFCE079E870A079A87003202870A6
:10355000BDE8F081588A00085C7F00204361636801
:10356000655F4561726C790A0000000020456E7449
:1035700072792025642061646465640A000000009B
:103580002DE9F0478846814633A10420FFF7F0FB80
:103590004946012000F03AFF3249484602F09EFBBE
:1035A00060B931A10420FFF7E3FB2E4C201D02F08F
:1035B000A8FD40B104F104094FF00008314D002787
:1035C00002262C680DE030A137E0207838B10422C3
:1035D000494604F10A0002F0F3FB012829D00E3419
:1035E0007F1C2879B842F0DC4046FFF701FF040059
:1035F0001CD01C4A4946002000F082FBC4EBC401E9
:103600006FF00D0202EB410128680422441849467C
:1036100004F10A0002F0E0FB06222349201D02F01B
:10362000DBFBA879A070E879E07026700020BDE887
:10363000F0872078032804D21CA10420FFF799FB0F
:10364000F4E77A1C20A10420FFF792FB60780128A0
:1036500000D166702046EAE743616368655F4669AA
:103660006E640A005C7F0020204950206E6F742039
:103670006C6F63616C2C20557365204761746577AE
:1036800061790A00588A000843616368655F66696A
:103690006E642C204761746577617920756E6B6E5E
:1036A0006F776E0A00000000468D00084361636872
:1036B000655F66696E642C20556E7265736F6C76FB
:1036C0006564204D41430A0020456E7472792025BF
:1036D0006420666F756E640A000000002DE9F041F9
:1036E0004C4D4D49287810B90A7B920770D50122BC
:1036F000401C8A7328700027484E83E0C0EBC0004E
:103700006FF00D01326801EB40001418207800289A
:1037100075D0E07820B1401E10F0FF00E0706ED14F
:10372000607840B104223E4904F10A0002F048FBEF
:10373000012800D167702A783AA10420FFF718FB0E
:103740006078022816D03DA3B0B13DA23EA104206E
:10375000FFF70EFB04F10A01012000F057FE211DC6
:10376000002000F053FE6078012807D028B302281B
:1037700023D044E038A3E7E739A2E7E7207803281D
:1037800038D0A078B0B3401E10F0FF00A07031D048
:1037900035A10420FFF7ECFA02202070F079E070E8
:1037A00004F10A00054602F0ACFC1D4A121F08B1E4
:1037B00029461AE00021201D18E02078032808D0AF
:1037C000A078B8B1401E10F0FF00A07012D002E047
:1037D0001EE00420207028A10420FFF7C9FA104A37
:1037E000F079E070121F04F10A010020BDE8F041F9
:1037F00000F086BA24A10420FFF7BAFA27702878CF
:10380000401C28703179C0B28142BFF477AF2F706D
:10381000BDE8F08174000020987F0020588A0008DD
:10382000607F002043616368652C20456E74727967
:103830002025642074696D656F75740A00000000AE
:1038400044796E616D69630020547970653A202572
:103850007325730A000000002D496E757365000022
:103860005374617469630000205265736F6C7665F0
:1038700020656E7472790A002052656672657368FD
:1038800020656E7472790A0020456E747279207218
:10389000656C65617365640A0000000070B50A4CD0
:1038A0000AA104202279FFF763FA00210A460123C6
:1038B000206803E0027043700E30491C25798D4268
:1038C000F8DC0848426070BD588A0008496E697487
:1038D0002043616368652C20256420656E747269DD
:1038E00065730A007400002001787F2912D00E222F
:1038F000B2EB111F0ED0006860B1411C0AD006491E
:103900000A68896842400A4202D10143491C01D039
:1039100001207047002070475C7F0020064900208E
:1039200048600648007A002804D0054A0020114665
:1039300000F0E6B97047000074000020588A0008C3
:103940005C7F00202DE9F047244F0546002600F15A
:10395000080A00F10E094FF009083C681DE02078C4
:10396000012818D9E98898FA88F0B1EB104F0AD1EC
:103970000622211D504602F023FA60B10422494676
:1039800004F10A0015E0042204F10A01484602F09D
:1039900017FA01280AD00E34761C3879B042DEDCE2
:1039A000BDE8F0470EA10420FFF7E3B90622514617
:1039B000201D02F011FA721C10A10420FFF7D8F9A3
:1039C0006078022801D1012060707879E070B879C0
:1039D000A07003202070BDE8F0870000588A00081E
:1039E000526563656976652C2057726F6E67207229
:1039F0006573706F6E73650A000000002043616399
:103A000068652C20456E7472792025642072656685
:103A10007265736865640A002DE9F041044658A197
:103A20000420FFF7A5F920882A2801D25BA113E022
:103A3000608A012109BAB0EB114F0CD1A08A4FF472
:103A4000006109BAB0EB114F05D1A07D062802D163
:103A5000E07D042805D058A1BDE8F0410420FFF71F
:103A600088B904F11200064600F09CFD208B04F199
:103A7000240700BA04F1200804F11A05010C2A34C5
:103A80000A297BD2DFE801F07A054E7A7A7A7A7ACF
:103A90003E6904224F49204602F092F928B1294696
:103AA0004046FFF7E9FB022137E004224146204669
:103AB00002F086F900284ED0474F00263C681DE0F2
:103AC0002078032818D306222946201D02F078F911
:103AD00090B1721C41A10420FFF74AF9042241462B
:103AE00004F10A0002F078F97879E070B879A070F2
:103AF00003202070BDE8F0810E34761C3879B04286
:103B0000DEDC28E006223C49384602F059F978B359
:103B100029464046FFF7B0FB09213046BDE8F04199
:103B200000F090B8204602F0ECFA30B104222949A6
:103B3000204602F045F9B0B90DE0304C616800292B
:103B4000D8D00422404602F03BF90028D2D0616868
:103B500000200870CEE72AA10BE00622264938464D
:103B600002F02EF920B13046BDE8F041FFF7EABE81
:103B700028A1BDE8F0410420FFF7FAB82BA1F8E72F
:103B80002A2A2A2050726F63657373696E672066F4
:103B900072616D65202A2A2A0A0000005265636559
:103BA0006976652C204672616D6520746F6F207395
:103BB000686F72740A000000526563656976652C4F
:103BC000205061636B657420636F727275707465E9
:103BD000640A00005C7F0020588A0008204361636B
:103BE00068652C20456E7472792025642075706498
:103BF0006174650A000000001C00002074000020B1
:103C00002049676E6F7265642C2057726F6E672053
:103C100049500A002049676E6F7265642C20577204
:103C20006F6E67204D41430A000000002049676E17
:103C30006F7265642C2057726F6E67204F70636FD0
:103C400064650A002DE9F0410E46054627A10420CF
:103C5000FFF78EF82A20FFF745FA044605F1080120
:103C600006220F46001D02F0B7F80622224904F191
:103C70000A0002F0B1F840F6060000BA000C2082FB
:103C8000012000BA000C60824FF4006000BA000C02
:103C9000A0820620A0750420E07530BA000C2083B5
:103CA0000622394604F1240002F096F8042205F1B8
:103CB0000E0104F12A0002F08FF806220E4904F1E9
:103CC0001A0002F089F804220C4904F1200002F0E5
:103CD00083F804F1120000F065FC204602F0E2FADD
:103CE0002046BDE8F04101F015B8000053656E6450
:103CF0005F5265706C790A001C0000205C7F002018
:103D00002DE9F0410F46054616462CA10420FFF789
:103D10002FF82A20FFF7E6F904460DB1294600E006
:103D20002A490622201D02F057F80622284904F1EC
:103D30000A0002F051F840F6060000BA000C20829A
:103D4000012001BA090C6182C10209BA090CA182E1
:103D50000621A1750421E17505B1082000BA000C07
:103D6000208306221A4904F11A0002F035F80DB139
:103D7000294600E01749062204F1240002F02CF83D
:103D80000EB1314600E01349042204F1200002F094
:103D900023F80FB1394600E00E49042204F12A004D
:103DA00002F01AF804F1120000F0FCFB204602F0C9
:103DB00079FA2046BDE8F04100F0ACBF53656E646F
:103DC0005F526571756573740A000000468D0008C6
:103DD0001C000020B48C0008054901EB80000A6833
:103DE0004068824201D201207047002070470000E5
:103DF0004C7F00200146042901DB0020704701EBC5
:103E00004100084A02EB80004078012808D10020D8
:103E100001EB4102034B03EB820250700120EDE7FE
:103E20000020EBE78839002070B50546304800EBEC
:103E300005142068804700283ED02079052802DA42
:103E40000520207152E020790A2803DA2079401CED
:103E500020714BE0A07A38B90120A07205EB450132
:103E6000491CC8B200F030FA208900283EDDE08805
:103E7000218988420DDAE088401C80B2E0802189E7
:103E8000884233D105EB4501C91CC8B200F01CFAC9
:103E90002CE0E07A002829DD207B401CC0B2207392
:103EA000E17A884222DB0020207305EB4501491CA2
:103EB000C8B200F009FA19E02079052802DD0520D2
:103EC000207110E0207918B12079401E20710AE09D
:103ED000A07A012807D10020A07205EB4501891CBA
:103EE000C8B200F0F1F90020E080207370BD00003E
:103EF000D83800200B48807A0A4AD27A904201D101
:103F0000002070470748807A064A115C1046807A84
:103F1000401CC0B290720A2801DB00209072084653
:103F2000EFE700007839002010B54FF44070FDF73E
:103F30005DF800F093F900F039F800F0F7F800F0C0
:103F40003FF910BD7FB501210820FEF7C5F81448E0
:103F5000006846081348B6FBF0F085B24FF0FF3416
:103F60000294ADF804500020ADF80C00ADF8060046
:103F700001A90D48FEF700FC01210B48FEF7D5FB17
:103F800032208DF8000004208DF8010000208DF80B
:103F9000020001208DF803006846FCF7EBFF7FBDAF
:103FA0005C00002040420F00000C004010B500F003
:103FB00053F800F001F810BD1CB501214FF4F27068
:103FC000FEF77AF800208DF804008DF806008DF8D1
:103FD000070002208DF80500C001009069461948CD
:103FE000FCF7D2FC4FF40050009069461648FCF7ED
:103FF000CBFC4FF40060009069461248FCF7C4FC0B
:104000000420009069461148FCF7BEFC082000908F
:1040100069460E48FCF7B8FC4FF400600090694612
:104020000B48FCF7B1FC8020009069460948FCF77A
:10403000ABFC4FF40040009069460448FCF7A4FC38
:104040001CBD00000020024000080240001C02408D
:1040500000140240001802400021284A9172D172D7
:104060001173002018E06421254A02EB001211812F
:104070000221234A02EB001211710021204A02EBB7
:10408000001291721E4A02EB0012D1721C4A02EB1E
:1040900000121173411CC8B20A28E4DB64221849DB
:1040A0000A87052281F83B206422A1F848200522D6
:1040B00081F84B206422A1F85820052281F85B206A
:1040C0006422A1F86820052281F86B200D490C4A72
:1040D00011600D4911610D4911620D4911630D49BE
:1040E00011640D4911650D4911660D4911670D499E
:1040F000C2F880100C49C2F890107047783900203F
:10410000D8380020810E0008B10E0008C90E000842
:10411000E10E0008F90E0008110F0008290F000831
:10412000410F0008590F0008990E00081CB5012125
:104130004FF49270FDF7C0FF012000F0A5F80220B7
:1041400000F0A2F8032000F09FF8042000F09CF893
:1041500001208DF8040000208DF806008DF807007E
:1041600003208DF805004FF48060009069460B48ED
:10417000FCF70AFC8020009069460948FCF704FC23
:104180004FF48070009069460548FCF7FDFB042061
:10419000009069460348FCF7F7FB1CBD0020024075
:1041A000001402400008024010B501210348FDF749
:1041B00093FF0120FCF738FF10BD00000000041041
:1041C00070B5002416E0002004EB44011F4A02EB06
:1041D0008101486004EB440102EB8101886004EB3B
:1041E000440102EB8101487004EB440102F8210014
:1041F000601CC4B2042CE6DB154800684FF47A72E8
:10420000B0FBF2F1481EB0F1807F00D31BE0481EE6
:104210004FF0E022506150170F22002807DA1307F1
:104220001E0E0C4B00F00F052D1F5E5503E013070B
:104230001D0E094B1D5400BF00204FF0E02290617D
:104240000720106100BFFFF77DFE70BD8839002098
:104250005C00002018ED00E000E400E010B5FEF77F
:10426000E3FCFCF79BFCFDF7CBFFFBF7F1FF10BD78
:1042700010B5002404E02046FFF7D6FD601CC4B250
:104280000A2CF8DB10BD0000411EC8B220B94FF463
:1042900080610A4A118310E0012803D18021084A75
:1042A00011800AE0022803D1C101054A118004E00F
:1042B000032802D10421034A1180704700200240E4
:1042C00018140240180802400649C97A054A505499
:1042D0001146C97A491CC9B2D1720A2901DB0021F1
:1042E000D17270477839002010B5FFF7C1FF10BDBB
:1042F00005480068401C044908600846006820F032
:10430000784008607047000000000020416851B10B
:104310004168491E416031B901214170017801298C
:1043200001D181684160704770B504460D46042C88
:1043300006DB124A12A11AA0FEF7F6FC00BFFEE748
:104340000120FEF726FD04EB44001D4901EB80002F
:10435000456004EB440001EB80008560002004EB25
:104360004401174A02EB81014870012004EB44012B
:1043700002F821000020FEF70CFD70BD938C0008B0
:104380002E2E5C2E2E5C557365725C6273705C73AE
:1043900072635C6273705F74696D65722E63000096
:1043A0004572726F723A2066696C652025732C2005
:1043B00066756E6374696F6E20257328290D0A0077
:1043C0008839002000B5002200F006F8C04380B212
:1043D00000BA000C00BD000005E000BF30F8023B51
:1043E000891E5BBA1A440129F8DC11B1007802EB8E
:1043F000002290B200EB124000EB104080B27047F8
:10440000084400EB104080B2704700001FB560B157
:10441000012809D1CA788878CDE900024B780A785A
:1044200008A10420FEF7A4FC1FBD88784C790B7905
:10443000CA788DE81D004B780A7807A10420FEF7A2
:1044400097FC1FBD20495020203A2025642E25646A
:104450002E25642E25640A00204D4143203A202554
:104460003032583A253032583A253032583A2530D1
:1044700032583A253032583A253032580A00000076
:104480002DE9F047002488B0DFF8A0908A46054661
:10449000274601260DF10408687B304207D009EB5E
:1044A000070108EB0400042201F096FC04443F1DC0
:1044B0007600402EF0DB08EB0400002100F8011C20
:1044C000A81C01F019FE0446284601F015FE02461C
:1044D000234617A10920FEF74BFC05F1080001F067
:1044E00010FE0446281D01F00CFE0246234617A1CB
:1044F0000920FEF73DFC05F1100001F0FDFD04462A
:1045000005F10E0001F0F8FD034601AA17A10920EC
:104510000094FEF72DFC5FEA0A0004D002461CA1BD
:104520000920FEF725FC08B0BDE8F087228D0008C1
:1045300020506F72747320203A205372633D2564BB
:104540002C204473743D25640A00000020536567E5
:104550006D656E743A205365713D307825582C2076
:1045600041636B3D307825580A00000020436F6E90
:1045700074726F6C3A205B25735D2057696E3D2520
:10458000642C20436B733D3078253034580A00008A
:10459000204C656E677468203A2025642062797427
:1045A00065730A007FB50446234AB4F8061000205C
:1045B0000DBA32F81030B3EB154F36D11E4900EB6F
:1045C00080003C3901EB40021CA10420FEF7D0FB27
:1045D000617C207CCDE90001E37BA27B1BA1042050
:1045E000FEF7C6FBE17EA07ECDE90001637E227E60
:1045F0001CA10420FEF7BCFBA07A637B227BE17A3E
:104600008DE80F00637A227A1CA10420FEF7B0FB2C
:10461000207DE37DA27D617D8DE80F00E37CA27C9F
:1046200021A10420FEF7A4FB7FBD401C0628BFDBB0
:1046300008BA020C27A1C8E7F68C0008204F705F6B
:10464000436F64653A2025730A00000020537263AB
:104650002E2049503A2025642E25642E25642E25CF
:10466000640A000020446573742E49503A20256482
:104670002E25642E25642E25640A000020537263C3
:104680002E4D41433A20253032583A253032583A9F
:10469000253032583A253032583A253032583A25AA
:1046A0003032580A00000000204473742E4D4143FC
:1046B0003A20253032583A253032583A253032588F
:1046C0003A253032583A253032583A253032580A95
:1046D00000000000204F705F436F64653A2030781F
:1046E000253034580A0000001CB50446C17B807B8D
:1046F000CDE90001637B227B19A10520FEF738FB81
:10470000E17CA07CCDE90001637C227C1AA105201C
:10471000FEF72EFB1E49627A00200B5C934219D1F2
:104720001B4900EB8000091D42181AA10520FEF765
:104730001FFBA0881BA100BA020C0520FEF718FB86
:10474000608802B000BA020CBDE810401AA1052032
:10475000FEF70EBB401C0428DFDB1DA1E6E70000CE
:10476000205372632E204950203A2025642E256460
:104770002E25642E25640A0020446573742E49504A
:10478000203A2025642E25642E25642E25640A00F7
:104790000A8D00082050726F746F636F6C3A202589
:1047A000730A0000204964656E7469662E3A2030F1
:1047B00078253034580A0000204C656E67746820F4
:1047C000203A2025642062797465730A0000000095
:1047D0002050726F746F636F6C3A203078253032DE
:1047E000580A000010B50446408D0AA100BA020C18
:1047F0000620FEF7BDFAA08D0BA100BA020C062020
:10480000FEF7B6FA2288BDE81040083A0BA1062050
:10481000FEF7AEBA204964656E7469662E3A2030A0
:1048200078253034580A00002053657175656E6331
:10483000653A203078253034580A000020506179DC
:104840006C6F6164203A2025642062797465730A74
:104850000000000008B5074AB0F93010B0F92E305A
:10486000527A01EBE3004243009103A10920FEF7D5
:104870007FFA08BD488A00082052544F3D25646DD8
:1048800073202873613D25642C2073763D256429AF
:104890000A00000010B5044600880EA100BA020C00
:1048A0000820FEF765FA60880EA100BA020C082005
:1048B000FEF75EFAE0880FA100BA020C0820FEF7AE
:1048C00057FAA088BDE8104000BA020C0EA10820DB
:1048D000FEF74EBA205372632E20506F72743A2046
:1048E00025640A0020446573742E506F72743A2058
:1048F00025640A0020436865636B73756D203A2058
:104900003078253034580A00204C656E6774682072
:1049100020203A2025642062797465730A00000023
:104920001FB50446437A027AC17980798DE80F0079
:104930006379227917A10120FEF71AFA207BE37B25
:10494000A27B617B8DE80F00E37AA27A1CA1012093
:10495000FEF70EFA208A254900BA020C002000BF9B
:1049600031F8103093420FD120490A3101EB800217
:104970001FA10120FEF7FCF9228804B020A1BDE8A8
:1049800010400120FEF7F4B9401C0228E8DB22A108
:10499000EFE7000020446573742E4D41433A202513
:1049A0003032583A253032583A253032583A25308C
:1049B00032583A253032583A253032580A00000031
:1049C000205372632E204D41433A20253032583A0D
:1049D000253032583A253032583A253032583A2567
:1049E0003032583A253032580A000000428D000813
:1049F0002050726F746F636F6C3A2025730A000049
:104A0000204C656E67746820203A20256420627906
:104A10007465730A000000002050726F746F636F3A
:104A20006C3A203078253034580A000006220249BA
:104A3000001D01F0C5B900001C00002010B50BA13D
:104A40000120FEF795F900F0C9FE00F027FC0B48A5
:104A500000210170417000F0C9FEFEF71FFF062122
:104A6000074801F0C4F90749486010BD496E6974F0
:104A700020696E746572666163650A00C87E0020F5
:104A80001C000020987F002070B5AFF30080FEF777
:104A900025FE334D28786978884260D0314901205D
:104AA000887331A1FEF764F9687805EB8001401C3A
:104AB00000F01F004C6868702046FFF731FF208A25
:104AC00000BA000CB0F5006F10D0A0F500600638F9
:104AD00008D02CA10120FEF74BF92046BDE870401C
:104AE00000F018B92046FEF797FFF6E700212046B0
:104AF00000F084FE0028F0D0251D06222A49284611
:104B000001F05EF960B9284601F0FBFA2749B1EBE4
:104B1000102F05D0A91D04F11E00FEF7C3FC05E00F
:104B200004F10A0104F11E00FEF7A6FBE07E012855
:104B300009D002280BD006280DD01128CDD120464F
:104B400003F05CFDC9E7204600F0C6F9C5E7204642
:104B500000F086FBC1E7204602F01EFBBDE770BDFA
:104B6000C87E0020987F00202A2A2A2050726F6376
:104B7000657373696E67206672616D65202A2A2AE3
:104B80000A00000020556E6B6E6F776E2050726FBA
:104B9000746F636F6C2C2064756D70696E6720662E
:104BA00072616D650A000000468D00085E0001001C
:104BB0007CB504462EA10120FEF7DAF804F12205A7
:104BC0002F4E04222F49284601F0FAF860BB281F17
:104BD00001F097FA98B12A780E2300200121B3EB57
:104BE000121F11D1217160715E20A071687800F0F0
:104BF0007F00E071A8782072E878607219E022A145
:104C00000120FEF7B6F831E025482968026880687F
:104C10004A40024202D10843401C05D001212846E7
:104C2000FEF7AEFCC0B1061D06223146201D01F084
:104C3000D3F806221B4904F10A0001F0CDF84FF425
:104C4000006000BA000C20822046FFF769FE204673
:104C500001F028FB01207CBDE978A878CDE90001AE
:104C60006B782A7810A10120FEF783F800207CBD24
:104C700053656E64696E67206672616D650A000037
:104C8000468D0008028D000853656E642C204C6F21
:104C900063616C5F495020302E302E302E300A0078
:104CA0005C7F00201C00002053656E642C20556E34
:104CB0007265736F6C766564204D414320666F7238
:104CC0002049502025642E25642E25642E25640A53
:104CD0000000000070B504460D460A2C0AD10D21D3
:104CE0000B48FDF72AFF00BF40210948FDF759FE98
:104CF0000028F9D0E1B20648FDF71FFF00BF4021B0
:104D00000348FDF74EFE0028F9D0204670BD000094
:104D1000001001402DE9F04100285AD0A0F108060A
:104D20002DA100207268FEF723F82F4DE87B28B1F3
:104D30002EA10020FEF71DF803202DE0DFF8C4802F
:104D40000027D8F8004000F049FD0120E87300205A
:104D50000EE0274624682178890708D0E87300F020
:104D600045FD29A10020FEF704F8022014E05CB103
:104D7000B442EED1296862688E1A2E60D8F800100D
:104D8000A1420DD160600DE0E87300F02FFD24A179
:104D90000020FDF7EEFF0120BDE8F04101F0D1BA9F
:104DA00021683960A989491E8CB2AC81AF7BA87398
:104DB000E87300F01BFD27B13A461FA10020FDF764
:104DC000D7FF23463246BDE8F04121A10020FDF780
:104DD000CFBFBDE8F08100004672656520256420E4
:104DE00062797465730A00004C7F00204672656525
:104DF0002C205265637572736976652063616C6CF3
:104E00000A000000488A0008467265652C206C691B
:104E10006E6B20636F727275707465640A000000B7
:104E2000467265652C20696E76616C696420426CFF
:104E30006F636B0A00000000204952515F416C6CA7
:104E40006F6320256420626C6F636B730A0000003F
:104E50002055736564202564206279746573202869
:104E6000256420626C6F636B73290A0010B5084CCF
:104E700000224FEA006308464FEA4101584000D53E
:104E800061405B00521C082AF5D3084610BD0000A3
:104E9000B71DC1040449054A4868504343F239022A
:104EA0001044486070470000987F00206D4EC64156
:104EB00010B504A10620FDF75BFF06480021017034
:104EC000418010BD496E697420456E67696E650A40
:104ED00000000000B87E0020F8B5044646A1062078
:104EE000FDF746FF218804F12600FFF76BFA08B1B1
:104EF00048A111E094F82600002704F11E060028BE
:104F000042D0082804D049A10620FDF731FF06E071
:104F100094F8270028B14CA10620FDF72AFF0020B5
:104F2000F8BD50A10620FDF723FF2046FFF75AFCED
:104F300020882230FEF7D6F880F8267080F8277097
:104F4000078522880546121F04F12A012A3000F045
:104F500043FF218805F12600FFF734FA288547A191
:104F60000620FDF705FF208828802846FFF73AFC39
:104F700080200090002301223146284600F000FEE8
:104F80002846FFF7C7FE34E0414D2878C00704D01B
:104F900094F8270018B13FA1BEE744A1BCE73C4903
:104FA00004220C31304600F00BFF38B1618DA88827
:104FB00009BAB0EB114F03D044A1ADE749A1ABE76B
:104FC00020881A2801D04EA1A6E76120211811F8E7
:104FD000331C8142F7D1401C7328F7DB4FA1062018
:104FE000FDF7C6FE2046FFF7FDFBA96800208847B5
:104FF0002F700120F8BD00002A2A2A2050726F630A
:10500000657373696E67206672616D65202A2A2A4E
:105010000A000000436865636B73756D2043686523
:10502000636B204661696C65640A0000204D6573FE
:1050300073616765206E6F74207265636F676E6958
:105040007A65640A000000004563686F205265714C
:10505000756573742C2057726F6E6720436F64659B
:105060000A000000204563686F2052657175657302
:10507000742072656365697665640A0053656E64C1
:10508000696E67204563686F205265706C790A000D
:10509000B87E00204563686F205265706C792C20C3
:1050A00057726F6E6720436F64650A0052656365CF
:1050B0006976656420616E7377657220696E20770A
:1050C000726F6E672073746174650A004563686F60
:1050D000205265706C792C2057726F6E672049647E
:1050E0000A0000004563686F205265706C792C20BF
:1050F00057726F6E6720486F73742049500A000022
:105100004563686F205265706C792C2057726F6E02
:1051100067205061796C6F61640A00002045636804
:105120006F205265706C792072656365697665647D
:105130000A00000010B5104C2078C00714D0608819
:1051400028B10E49097BC9070ED0401E0BE06078DC
:1051500058B1401E60700AA10620FDF709FE00F05C
:105160001FF80E48007A608010BDA16801208847B2
:105170000020207010BD0000B87E0020987F002025
:1051800052657472616E736D6974204563686F2037
:10519000526571756573740A00000000488A000842
:1051A00038B51C4DE888401CE8803C20FDF79AFF8C
:1051B000082180F82610002180F827100446018578
:1051C000A88800BA010C6185E88800BA010CA185A5
:1051D0006120211801F8330C401C7328F9DB1A21D7
:1051E00004F12600FFF7EEF820851A2020802046E3
:1051F000FFF7F8FA802007490090002301220C31C4
:10520000204600F0BDFC05462046FFF783FD2846FA
:1052100038BD0000B87E00200E4910B50838096876
:10522000002203E00A460968002912D08142F9D120
:1052300009484C6803681B1B036012B109681160C0
:1052400001E000224A608189491E8181817B491EDB
:10525000817310BD488A00084C7F002000207047F1
:105260007047000010B500F017F800F04DFA08483C
:1052700001213C2201600021018141810173054926
:105280003C3800F0A9FDBDE8104000F095BA0000E0
:10529000987F00200C8A0008704700002DE9F0413B
:1052A000172001218140C94A430942F8231000BF59
:1052B000C748006840F48040C5490860C448343895
:1052C000006840F00070C24934390860C148006885
:1052D00040F40000BF490860BD483438006820F041
:1052E0000070BB4934390860B94814380068BA49BD
:1052F0000843B74914390860B84800684CF23C01CB
:105300008843B64908600846006848F22801084307
:10531000B24908600846406820F0860048600846A8
:105320008068AF490843AD4988600846C068AC4909
:10533000C9430840A949C8600846006AA94908400D
:10534000A64908620846006AA7490843A3490862BB
:10535000A648006840F60C718843A44908600846D6
:10536000006840F608210843A0490860081D00684D
:1053700020F03200091D0860081D006840F60C711D
:1053800008439A4908310860081D006840F60C710E
:10539000884396490C31086094482030006894494D
:1053A0000840924920310860084600689149084346
:1053B0008E49203108609048006820F073508E4973
:1053C00008600846006840F022500860081D006828
:1053D00020F4D040091D0860081D006840F073509B
:1053E000091D0860081D006820F07350091D086041
:1053F0008148406A814908407F4948620846406ABE
:105400007F4908437C4948627E48006840F00100BB
:105410007C49086000BF7B48006800F0010000285C
:10542000F9D100261020784908617848FDF77CFC06
:1054300077A0FDF779FC7FA0FDF776FC4FF40041E3
:10544000002003F0C9FA00250BE0002000F082FEE6
:10545000044604F4084018B97FA0FDF765FC03E09A
:105460006D1CB5F5803FF0D300BF4FF48051002094
:1054700003F0B2FA00250BE0012000F06BFE0446B9
:1054800004F0200018B179A0FDF74EFC03E06D1C7C
:10549000B5F5801FF0D300BF00252FE0012000F0FC
:1054A00059FE044604F00400002820D077A0FDF740
:1054B0003BFC01207C490870112000F04BFE0446A3
:1054C00004F4004004F40051084320B177A0FDF734
:1054D0002BFC46F0020604F4004004F4804108432B
:1054E00020B179A0FDF720FC46F0010609E07BA081
:1054F000FDF71AFC00206C4908706D1CB5F5803F63
:10550000CCD300BF4FF48051152003F065FAFBF7B0
:105510000FF84FF400503C49086006F0020020B13B
:105520000846006840F40060086006F0010028B1F9
:105530003548006840F48040334908604FF4826089
:1055400031494860802088616A4800796949497911
:1055500040EA01202C4908646648C0780006654985
:10556000897840EA01406349497840EA012061496D
:10557000097808432449486400F05EFE02F0B0FE5A
:105580005D48204988612048006840F00C001E49B1
:1055900008604FF0FF301B4948615848C8613D2002
:1055A0000021002807DA0A07170E554A00F00F03FA
:1055B0001B1FD75403E00A07130E524A135400BFAF
:1055C0001248FDF7B1FBBDE8F081000080E100E08A
:1055D00044380240043801404700001E00000240E9
:1055E0003CC003000FF0FF0FB00B00B000080240FA
:1055F0000FFF00FFB000BB0000180240FF0F0FF0CC
:1056000000B0B00B0090024000800240548D0008B2
:10561000CFC2C3E6CAC7444D393136312F3931368E
:1056200032B5C4D3B2BCFEB3F5CABCBBAFA3BA0D8E
:105630000A000000312E20537461727420504859C2
:105640005F49445F444D393136312F39313632208C
:10565000496E69740D0A0000322E2052657365741C
:1056600020436F6D706C6574650D0A00332E204108
:1056700075746F2D4E65676F74696174696F6E2004
:10568000436F6D706C6574650D0A0000342E204305
:105690006F6E6E656374696F6E20537563636565C5
:1056A0006465640D0A00000070000020352E20465D
:1056B000756C6C2D6475706C657820636F6E6E65AB
:1056C0006374696F6E0D0A00362E203130304D62E2
:1056D0007073204D6F64650D0A000000342E204366
:1056E0006F6E6E656374696F6E206661696C656468
:1056F0000D0A00001C00002002201000C0800100E4
:1057000018ED00E000E400E010B51B4C1BA10020E8
:105710006268FDF72DFB00F061F8D4E900321A440D
:10572000121F1C4800211A601160596001608181BC
:105730008173C1736168B1F5803F06D201EB41010D
:10574000890841606168490805E0A1F58041416030
:105750006168A1F500418160E17A11F0060F02D085
:10576000416849088160D0E90123BDE810400AA1E1
:105770000020FDF7FDBA0000488A0008496E6974F0
:10578000204D656D506F6F6C2025642062797465C3
:10579000730A00004C7F0020204C696D6974303D15
:1057A0002025642C204C696D6974313D20256420CE
:1057B00062797465730A000010B5FFF73FF900F0D5
:1057C0005BF9FFF775FB02F051FE00F0FFFF00F000
:1057D0002DFBBDE81040FEF7A1B800004FF00051CE
:1057E000014801607047000084E100E04FF0005084
:1057F000014908607047000004E100E02DE9F04134
:105800000E4604463AA10520FDF7B2FAA08A218887
:1058100000BA050C05F10E00814201D23BA105E062
:10582000A07C0421B1EB101F04D03EA10520FDF7A0
:10583000A0FA3AE004F112008046FEF755FF032E6D
:105840003DD03D4906EB860001EB800104F12200CA
:105850000422074600F0B4FA002830D10422374968
:10586000384600F0ADFA50BBDEB939780E22384622
:10587000B2EB111F04D1FFF7F1FC012818D009E0A9
:105880002D483968026880684A40024202D10843C4
:10589000401C0DD02046FFF7C9F810B1E07E11285A
:1058A0000DD027A10520FDF763FA0020BDE8F081A7
:1058B000E07E022803D0112801D029A1B6E7404696
:1058C00000F078F808B12EA1B0E7208B43F6FF7105
:1058D00009BA10EA114F01D02FA1A7E7A07C000759
:1058E000800E00F10E016180281A20800120DDE782
:1058F0002A2A2A2050726F63657373696E67206667
:1059000072616D65202A2A2A0A00000043686563D7
:105910006B2C204672616D6520746F6F2073686F09
:1059200072740A00436865636B2C204E6F742049C3
:105930005076340A000000005C7F0020028D0008D1
:105940002057726F6E6720446573742E49502C2067
:1059500064756D70696E67206672616D650A00001E
:10596000436865636B2C2057726F6E67206D6361AF
:1059700073742070726F746F636F6C0A00000000A4
:10598000436865636B2C20436865636B73756D209A
:105990004661696C65640A00436865636B2C204648
:1059A0007261676D656E746564206672616D650A0B
:1059B0000000000001780907890EFEF703BD000012
:1059C0002DE9F04107460078274D7F2809D0274C64
:1059D000E07AC00718D02649384600F07FF9A0BB0E
:1059E0000CE00320287104222249384600F0E8F92F
:1059F00008B9042028711F48BDE8F0810422FF2166
:105A0000384600F009FA00BBE07A8107184800F137
:105A10001400804604D50146384600F05FF9D0B93D
:105A2000E07A134E400706F1280604D53146384681
:105A300000F054F998B9E17A0A2088430BD0C9B232
:105A4000142088430BD0C80703D0002028710848D1
:105A5000D2E7880703D5012028714046CCE7022011
:105A600028713046C8E7000080000020488A0008FE
:105A70005C7F0020068D000810B504A10520FDF70D
:105A800077F906490020086010BD0000496E69746E
:105A9000206C6F63616C686F73740A008000002073
:105AA00070B5054613A10520FDF762F9288840F07E
:105AB0008040FDF717FB04000DD02A8805F1120184
:105AC0000E3A04F1120000F087F90E4900206060E0
:105AD000086830B107E00CA10520FDF74AF9002065
